:1081000090E8037480F0908166E493B4FF0280F6F7
:10811000FA7C32C082C08390E8017403F0EAC45450
:108120000F90815C9390E800F090E8017402F031C8
:108130005390E8017403F0EA540F90815C9390E847
:1081400000F090E8017401F03153D083D082DCC399
:10815000A380B67E0A7FFADFFEDEFA223F065B4F7F
:10816000666D7D077F6F0001020304050615161773
:10817000181920212223294748495051525354FFAE
:00000001FF
