:10810000780A7909909000E0FDA3E0F5F0EDC395C1
:10811000F0400A6008EDF01582E5F0F0A3D9E8D848
:10812000E17A007B09EAC39B60315052EA2BC3130A
:10813000FC909000EC2582F58274003583F583E095
:10814000FD909500E0F5F0EDC395F0602A4007EC56
:10815000602C14FB80CFEC04FA80CA909000EA25D2
:1081600082F58274003583F583E0FD909500E0C3CD
:108170009D700BEAFC8000909550ECF08006909585
:068180005074FFF080FEC8
:00000001FF
