:03800000028100FA
:1081000090E8037489F0C200C201D203D204753032
:10811000149090007410F0A37459F0A37445F0E427
:10812000909003F0A3F0A3F0758901758C4C758ACB
:108130000075A882D28C90E802E0FA20E004D20018
:108140008002C200EA20E115300314C20330000FA0
:10815000E4909003F0A3F0A3F0D2018002D203EAEE
:1081600020E20C30040BC204300006C2018002D2AF
:108170000420000678907900800478907903888341
:108180008982A3A3E0FB540F516C90E80174FEF0C8
:108190005184517DEBC4540F516C90E80174FDF093
:1081A000518488838982A3E0FB517DEB540F516C8D
:1081B00090E80174FBF05184517DEBC4540F516C75
:1081C00090E80174F7F0518488838982E0FB517D47
:1081D000EB540F516C90E80174EFF05184517DEB3A
:1081E000C4540F516C90E80174DFF05184517D024A
:1081F0008136C28C758C4C758A00D28CC0E0C0D0A0
:10820000C082C083D5305C753014909002E02401A8
:09821000D4B460027400F0701C8B
:10821900909001E02401D4B460027400F0700D90D4
:108229009000E02401D4B424027400F030012B90B2
:108239009005E02401D4B460027400F0701C9090A1
:1082490004E02401D4B460027400F0700D9090032E
:10825900E02401D4B424027400F0D083D082D0D0B9
:10826900D0E032C083C08290828D9390E800F0D034
:1082790082D0832290E80174FFF0227E047FFADF26
:0E828900FEDEFA227E0CB69ECCDAFA0EFEDE87
:03FFF0000281F299
:00000001FF
