:03FFF00002829BEF
:1081000090E8037489F07F00758901758C4C758A3D
:108110000075A882D28C780079007A007B007C0000
:108120007D007400758391758200F00582F00582F0
:10813000F00582F00582F00582F090E80174F8F015
:10814000758390E8F582E075F002A490E800F07184
:108150002490E80174F4F0758390E9F582E075F0FD
:1081600002A490E800F0712490E80174ECF07583AB
:1081700090EAF582E075F002A490E800F071249096
:10818000E80174DCF0758390EBF582E075F002A4F1
:1081900090E800F0712490E80174BCF0758390ECD5
:1081A000F582E075F002A490E800F0712490E801F7
:1081B000747CF0758390EDF582E075F002A490E890
:1081C00000F0712490E802E05401B4001D02812205
:1081D0007400758391758200F00582F00582F005C8
:1081E00082F00582F00582F0800990E802E05402F6
:1081F000B402DD90E802E05401B401D190E80174CA
:10820000F8F0909105E0758390F582E075F002A496
:1082100090E800F0712490E80174F4F0909104E08B
:05822000758390F5825A
:10822500E075F002A490E800F0712490E80174EC88
:10823500F0909103E0758390F582E075F002A490CB
:10824500E800F0712490E80174DCF0909102E0758B
:108255008390F582E075F002A490E800F071249017
:10826500E80174BCF0909101E0758390F582E075AA
:10827500F002A490E800F0712490E801747CF0907D
:108285009100E0758390F582E075F002A490E80016
:10829500F071240281EA758C4C758A000FEFB414D5
:1082A5007D7F0008E8B40A25780009E9B4061E793F
:1082B500000AEAB40A177A000BEBB406107B000C2F
:1082C500ECB40A097C000DEDB40A027D0090E802C9
:1082D500E05402B40248909105E004F0B40A3F74FA
:1082E50000F0909104E004F0B406337400F090912E
:1082F50003E004F0B40A277400F0909102E004F062
:10830500B4061B7400F0909101E004F0B40A0F74F8
:1083150000F0909100E004F0B40A037400F03275A7
:08832500F0FFD5F0FD2280FEFF
:00000001FF
