:1081000090E8037480F07583907400F582E090E845
:1081100000F031957583907401F582E090E800F0ED
:1081200031957583907402F582E090E800F0319506
:108130007583907403F582E090E800F031957583C3
:10814000907404F582E090E800F0319575839074A6
:1081500005F582E090E800F031957583907406F59E
:1081600082E090E800F031957583907407F582E025
:1081700090E800F031957583907408F582E090E8FE
:1081800000F031957583907409F582E090E800F075
:1081900031950281067B087AFF79E2D9FEDAFADBB3
:0481A000F62280FE45
:00000001FF
